:100000000C942A000C9434000C9434000C943400AA
:100010000C9434000C9434000C9434000C94340090
:100020000C9434000C9434000C9434000C94340080
:100030000C9434000C9434000C9434000C94340070
:100040000C9434000C9434000C9434000C94340060
:100050000C94340011241FBECFE5D8E0DEBFCDBF25
:100060000E947C000C9481000C94000011BA17BA15
:1000700081B3806E81BB87B3806887BB089582B3EC
:10008000806282BB2FEB87E299E021508040904054
:10009000E1F700C0000082B38F7D82BB82B3806431
:1000A00082BB2FEB87E299E0215080409040E1F73E
:1000B00000C0000082B38F7B82BB82B3806882BBAA
:1000C0002FEB87E299E0215080409040E1F700C09B
:1000D000000082B38F7782BB88B3806888BB2FEB28
:1000E00087E299E0215080409040E1F700C0000095
:1000F00088B38F7788BB08950E9436000E943F0026
:06010000FDCFF894FFCFD3
:00000001FF
