:100000000C942A000C9434000C9434000C943400AA
:100010000C9434000C9434000C9434000C94340090
:100020000C9434000C9434000C9434000C94340080
:100030000C9434000C9434000C9434000C94340070
:100040000C9434000C9434000C9434000C94340060
:100050000C94340011241FBECFE5D8E0DEBFCDBF25
:100060000E9478000C947D000C94000011BA81B3BA
:10007000806F81BB089582B3806282BB2FEB87E2E1
:1000800099E0215080409040E1F700C0000082B329
:100090008F7D82BB82B3806482BB2FEB87E299E0C5
:1000A000215080409040E1F700C0000082B38F7B78
:1000B00082BB82B3806882BB2FEB87E299E021503C
:1000C00080409040E1F700C0000082B38F7782BB90
:1000D00082B3806182BB2FEB87E299E021508040A0
:1000E0009040E1F700C0000082B38F7E82BB08958C
:0E00F0000E9436000E943B00FDCFF894FFCF27
:00000001FF
