:100000000C942A000C9434000C9434000C943400AA
:100010000C9434000C9434000C9434000C94340090
:100020000C9434000C9434000C9434000C94340080
:100030000C9434000C9434000C9434000C94340070
:100040000C9434000C9434000C9434000C94340060
:100050000C94340011241FBECFE5D8E0DEBFCDBF25
:100060000E9436000C947E000C9400008FEF8ABB37
:1000700020E030E016C04BB381E090E0022E02C0D9
:10008000880F991F0A94E2F7842B8BBB4FE986E80F
:1000900091E0415080409040E1F700C000002F5FA8
:1000A0003F4F2830310538F327E030E017C04BB31D
:1000B00081E090E0022E02C0880F991F0A94E2F7B7
:1000C000809584238BBB4FE986E891E041508040C6
:1000D0009040E1F700C000002150310921153105A1
:1000E00031F78BB38E7F8BBB2FE946E881E021503F
:1000F00040408040E1F700C00000BACFF894FFCF45
:00000001FF
